:1000000011C02BC02AC029C028C027C026C025C0C7
:1000100024C023C0CCC021C0D8C11FC01EC02573BE
:100020002F25730011241FBECFE5D2E0DEBFCDBF68
:1000300010E0A0E6B0E0E4E9F9E102C005900D921D
:10004000A237B107D9F711E0A2E7B0E001C01D92D5
:10005000AC3CB107E1F7B9D99BCCD2CFA8950197B9
:1000600028F0E0EAFFE03197F1F7F8CF089572E069
:100070007A95F1F70197D9F7A895089588E08DB999
:10008000C59AC39A0895C3980895C39A089584E0C1
:1000900086BB86BB86BB86BB86BB86BB86BB86BB58
:1000A00086BB86BB86BB86BB86BB86BB86BB86BB48
:1000B00000008FB1089594E068B378E087FB65F99C
:1000C00068BB880F96BB96BB7A95C1F7C59A089511
:1000D000DC01FB0122E032E02E1B3F0B241B350B21
:1000E00084E0319788F086BB86BB86BB86BB86BB27
:1000F00086BB86BB86BB86BB86BB86BB86BB86BBF8
:1001000086BB86BB86BBEDCF109731F0C0DF8D93E9
:1001100041505040D9F736C08C9956958C994795E7
:10012000899956958999479560917600A0E9B0E044
:10013000A60FB11D8091A0018C3FE0F7A8DFEE274C
:100140008C9B03C0E82FA3DF8058F82F899B0BC03E
:100150009EDF99278C9B03C0982F99DF8058E90F69
:10016000F81FF795E795ED93FD93F8948091A00122
:100170008E5F8093A00178946E5F41505040B1F63D
:100180006093760084E086BB86BB86BB86BB86BB5D
:1001900086BB86BB86BB86BB86BB86BB86BB86BB57
:1001A00086BB86BB86BB2150304069F708958F938C
:1001B0008FB78F93EF93FF93E0917700FF27E0577E
:1001C000FF4F8091A001825048F08093A00181915F
:1001D0008EBD81918BBDE059E0937700FF91EF9147
:1001E0008F918FBF8F9118958A3019F48DE001D0CF
:1001F0008AE0FF93EF93E0917200F09173003097E3
:1002000009F00995EF91FF910895FC0185918030E7
:1002100011F0EADFFBCF0895FF27E0E230E247FF6D
:100220000CC0419597FF09C0EDE2609570958095EF
:100230009095611D711D811D911D27FF02C02195A3
:1002400030E350E2AA27660F771F881F991FAA1F65
:10025000A41710F0A41B63955A95A9F7AA3008F0CB
:10026000A95FA05DAF93F3956115710581059105B7
:1002700041F7ED3211F4EF93F395F21718F43F9331
:10028000F395FBCF8F91B0DFFA95E1F70895E991EF
:10029000F9918591803021F0853219F0A5DFF9CFF1
:1002A000089520E0E89455915532C1F3503311F48C
:1002B000689455915A3348F4505390F3220F022E0C
:1002C000220F220F200D250FF4CF0EF421958991D6
:1002D0009991533619F3533729F1533559F1BC012C
:1002E00088279927E8945C3621F48991999168943C
:1002F0005591543639F446EF7EF077FF0DC08FEFFD
:100300009FEF0AC055374AE039F0583540E121F0F7
:10031000523642E009F00895FF93EF937DDFEF91AD
:10032000FF91B7CFFF93EF93FC0181918030B9F338
:100330005BDFFBCFFF93EF9368DFF1CFDF93CF93CA
:10034000CDB7DEB72596A3DFCF91DF910895F701F2
:1003500081937F010895DF93CF93CDB7DEB72596C4
:10036000E0917200F0917300EF93FF93E7EAF1E000
:10037000E0937200F0937300FF92EF92E990F9908E
:1003800086DFF7011082EF90FF90FF91EF91E093ED
:100390007200F0937300CF91DF9108951F93CF9374
:1003A000DF93009719F011E0C0E002C01FEFC0E832
:1003B000D0E8C10FCEBDCBBD84E690E058DED15071
:1003C000C1F7DF91CF911F91089518950F931F9357
:1003D000CF93DF93C0917400D0917500625070404C
:1003E000804090400E811F81288539850250104041
:1003F00020403040601771078207930780F42A81FC
:1004000030E040E050E038DA8B019C018A899B891A
:10041000AC89BD89080F191F2A1F3B1F03C000E0CC
:1004200010E09801B801C901DF91CF911F910F91A0
:100430000895CF93DF93EC01E0917400F091750083
:10044000198218828C819D81AE81BF818130910596
:10045000A105B10569F146815781608571858417D1
:100460009507A607B70720F50097A105B10539F450
:100470002081233021F486859785A089B1898887DA
:100480009987AA87BB870097A105B10531F0BC0108
:10049000CD019CDFDC01CB0104C086859785A08956
:1004A000B1898C879D87AE87BF8780E090E002C0CE
:1004B00081E090E0DF91CF910895A4E0B0E0E2E622
:1004C000F2E019CA4B015C016090740070907500F5
:1004D00082E088169104A104B10408F4A7C0F301D6
:1004E00086819781A085B18588169906AA06BB06E4
:1004F00008F09CC08081823009F455C0833009F433
:100500006FC0813009F092C0C40196958795880D1F
:10051000991D9C0131706C01CD2CDD24C694EE2414
:10052000FF2442855385648575854C0D5D1D6E1DC8
:100530007F1DCE010196F1E02F3F3F0719F002E049
:1005400010E019C02FEF31E001E010E00ED7009766
:1005500009F06CC0F30142855385648575854F5F52
:100560005F4F6F4F7F4F4C0D5D1D6E1D7F1DCE0188
:10057000029620E030E0F9D6009709F057C00981D3
:100580001A81F1E08F2299248114910431F084E0E2
:10059000169507958A95E1F720C020E030E01F709E
:1005A0002070307047C077276B2D5A2D492DF301ED
:1005B00082859385A485B585480F591F6A1F7B1FC7
:1005C00094013070220F331FCE01019602E010E03B
:1005D000CCD6009759F509811A8120E030E02AC075
:1005E000B501A40187E076956795579547958A955B
:1005F000D1F7F30182859385A485B585480F591FEE
:100600006A1F7B1F94012F773070220F331F220F38
:10061000331FCE01019604E010E0A7D6009731F415
:1006200009811A812B813C813F7004C001E010E0F8
:1006300020E030E0B801C9012496EEE078C9EF92DD
:10064000FF920F931F93CF93DF937C01009174006F
:1006500010917500FC01C081D181219609F45CC024
:1006600084859585A685B7850097A105B10509F410
:1006700053C09E012F7030702115310509F043C021
:100680000196A11DB11D84879587A687B7874085F0
:10069000518562857385F801411551056105710524
:1006A00031F484819581C817D907B0F52CC08281B7
:1006B00090E001979E01A4E036952795AA95E1F771
:1006C000822393230097F9F4CB01BA01F6DE62305E
:1006D000710581059105E8F0F801068117812085F3
:1006E00031856017710782079307B0F4F7016087BF
:1006F0007187828793876ADEDC01CB01F7018487EB
:100700009587A687B787F701D183C08380E090E003
:1007100005C081E090E002C083E090E0CDB7DEB795
:10072000E6E00DC9A0E0B0E0E7E9F3E0E6C87C014F
:100730004B01CA015C01DC012C9101962032D1F3FE
:100740002F3209F45C01F701148215821682178298
:10075000D5018C91813230F4C7016BDEEC01F401DC
:100760001082C3C020E2C22EF701A281B381FD0135
:100770008CE090E001C0C1920197E9F720E050E0E1
:1007800038E001C05D2DF501E50FF11D4081D52E4A
:10079000D3944132D0F14F32C1F14E3211F02317D0
:1007A00038F0383091F54E3281F528E03BE0EACF61
:1007B000842F81588F3118F08F558D31D8F4622FE6
:1007C00070E0832F90E00197681779079CF4F5019A
:1007D000ED0DF11D808192E0D92ED50EFD01E60FC1
:1007E000F71F4083922F9F5FFD01E90FF11D80836A
:1007F0002E5FC8CF842F81568A3108F44052FD0104
:10080000E20FF11D40832F5FBDCF81E0413208F040
:1008100080E01B968C93C7010CDEEC010097B1F5CC
:10082000D7011C964D915D916D917C911F972D91F3
:100830003C912F70307015E0220F331F1A95E1F7AD
:10084000C40100E210E091D5009709F049C0F4011D
:1008500080818823F1F0438543FD13C0F701A28115
:10086000B3819401CD010B968D010817190709F486
:1008700041C0F90161919F01F80151918F01651704
:10088000A1F3C701DCDE009759F2EC01C330D105BA
:1008900061F5D7011296ED91FC911397838588231A
:1008A00011F1C3E0D0E021C044FF1DC0AD0CB11C6C
:1008B000F4014489558960E070E0BA015527442766
:1008C000828D938DA0E0B0E0482B592B6A2B7B2BB7
:1008D000D70114964D935D936D937C93179744CFF6
:1008E000C1E0D0E002C0C4E0D0E0CE01CDB7DEB7B9
:1008F000ECE01FC81B968C911B978823A9F2F5CFBB
:10090000A0E0B0E0E5E8F4E0FCC7EC016A017B019F
:100910002EEF31E002E010E028D5009741F5888104
:1009200099812AEA8535920721F5CE01B701A60102
:1009300026E330E01AD5009731F48881998121E4CB
:1009400086349207C1F0CE01B701A60122E530E05E
:1009500002E010E00AD5009741F481E02881398156
:1009600091E42634390741F406C081E005C083E0F4
:1009700003C082E001C080E0CDB7DEB7E8E0DDC7AC
:100980004F925F926F927F92AF92BF92CF92DF921F
:10099000EF92FF920F931F93CF93DF93CDB7DEB704
:1009A000A8970FB6F894DEBF0FBECDBF5C011092C2
:1009B000750010927400009709F4E2C041D480FDE4
:1009C000E2C0CE01019640E050E0BA0199DF8130EB
:1009D000D9F4CE01019640E050E0BA012EEB31E0AF
:1009E00000E110E0C2D4009709F0D3C08D818823C4
:1009F00009F4CCC0C984DA84EB84FC84CE0101966E
:100A0000B701A6017DDF03C0CC24DD24760183304D
:100A100009F4BFC0882309F0B9C0CE010196B7011F
:100A2000A6012DE030E004E210E09FD4009709F029
:100A3000B0C06A857B8580E090E061157105810515
:100A4000910521F4688D798D8A8D9B8D2C8130E004
:100A500040E050E011D76DA37EA38FA398A74A81F1
:100A60005B8160E070E026013701440E551E661E72
:100A7000771ED5011A964D925D926D927C921D97CC
:100A8000298112962C931297CD80DE801596DC92E8
:100A9000CE9214978F819885A0E0B0E00097A105D1
:100AA000B10521F48C899D89AE89BF8934E0D69443
:100AB000C7943A95E1F7EE24FF24841B950BA60B0F
:100AC000B70B4DA15EA16FA178A5841B950BA60B5A
:100AD000B70B8C199D09AE09BF0930E040E050E02A
:100AE000BC01CD01E2D689019A010E5F1F4F2F4F45
:100AF0003F4FD50116960D931D932D933C93199757
:100B0000073FBFE01B07B0E02B07B0E03B0750F00A
:100B1000073FEFEF1E07E0E02E07E0E03E0720F47E
:100B200082E003C081E001C083E0D5018C93833073
:100B300029F488A199A1AAA1BBA108C08DA19EA159
:100B4000AFA1B8A5840D951DA61DB71DF50186871B
:100B50009787A08BB18BC40CD51CE61CF71C4DA14C
:100B60005EA16FA178A5C40ED51EE61EF71EC28A2F
:100B7000D38AE48AF58A1182B0927500A09274003B
:100B800080E090E008C082E090E005C087E090E05F
:100B900002C081E090E0A8960FB6F894DEBF0FBEC9
:100BA000CDBFDF91CF911F910F91FF90EF90DF901C
:100BB000CF90BF90AF907F906F905F904F900895CF
:100BC000ACE3B0E0E5EEF5E0A0C6AC010091740046
:100BD0001091750001151105C1F1F8011182CE01C6
:100BE0000196988B8F87CE010D96BE01635E7F4F75
:100BF00099DD9C01009771F58D8D882349F188A5B9
:100C000084FD26C049A95AA960E070E0BA015527C1
:100C100044278FA998ADA0E0B0E0482B592B6A2B50
:100C20007B2BF801468F578F60A371A389AD9AADD6
:100C3000ABADBCAD828F938FA48FB58F168A178A08
:100C4000108E118E81E0818305C026E030E002C065
:100C500023E030E0C901EC96E4E073C6A0E0B0E028
:100C6000E3E3F6E046C63C016B014A01E090740004
:100C7000F0907500FA0111821082E114F10409F478
:100C8000B0C0F701818180FFAFC0428D538D648D6C
:100C9000758D86899789A08DB18D481B590B6A0B7C
:100CA0007B0BC601A0E0B0E0481759076A077B0735
:100CB00008F46A015301412CD2E05D2E86C0F70191
:100CC00046895789608D718DDB01CA019170A070D2
:100CD000B0700097A105B10509F040C0DB01CA0161
:100CE000C9E0B695A79597958795CA95D1F7C28122
:100CF000C150C823E9F4411551056105710529F476
:100D0000868D978DA0A1B1A108C0F70162A173A142
:100D100084A195A1D2DBDC01CB0182309105A10534
:100D2000B10508F459C0F70182A393A3A4A3B5A306
:100D3000F70162A173A184A195A148DBDC01CB017D
:100D40000097A105B10509F447C08C0F911DA11DA5
:100D5000B11DF70186A397A3A0A7B1A7F701268924
:100D600037893170C201821B930BE6018C159D05FA
:100D700008F4EC016114710419F480E090E001C002
:100D8000C501F70146A157A160A571A58E01EDD25D
:100D9000009711F5AE0160E070E0F7018689978950
:100DA000A08DB18D840F951FA61FB71F868B978BC3
:100DB000A08FB18FAC0EBD1ECC1ADD0AF40180816C
:100DC00091818C0F9D1F91838083C114D10409F000
:100DD00076CF80E090E00AC0F701118281E090E0D8
:100DE00005C086E090E002C085E090E0CDB7DEB7B8
:100DF000E0E19BC5A4E0B0E0EFEFF6E078C59B0131
:100E000020907400309075002114310409F4E1C081
:100E1000D10111964C91119740FFDEC05A964D9129
:100E20005D916D917C915D9769017C014C155D052B
:100E30006E057F0510F46A017B01F10186899789AF
:100E4000A08DB18D168A178A108E118EC114D1040F
:100E5000E104F10409F4C3C082809924AA24BB24CC
:100E600029E0880C991CAA1CBB1C2A95D1F7009775
:100E7000A105B105D9F12C013D01089441085108A3
:100E800061087108C701B601615070408040904010
:100E9000A50194010AD529833A834B835C83C3015E
:100EA000B201A501940101D589819A81AB81BC81F0
:100EB00082179307A407B507C8F088279927DC0194
:100EC00088199909AA09BB0984219521A621B7216E
:100ED000F101868B978BA08FB18FC81AD90AEA0AC5
:100EE000FB0A62A173A184A195A138C0D1015E96CD
:100EF0006D917D918D919C919197F10162A373A366
:100F000084A395A32BC0D9DA6230710581059105C0
:100F100008F45AC0D10116960D911D912D913C9166
:100F20001997601771078207930708F04DC0F10108
:100F300062A373A384A395A306891789208D318D9D
:100F4000080D191D2A1D3B1D56960D931D932D93BB
:100F50003C935997C818D908EA08FB088C149D04DB
:100F6000AE04BF0480F2F10186889788A08CB18C12
:100F70008C0C9D1CAE1CBF1C868A978AA08EB18EDD
:100F800025DAAB01BC014115510561057105E1F0A0
:100F900089E0B694A794979487948A95D1F7F10144
:100FA000828190E00197AA2797FDA095BA2F882209
:100FB0009922AA22BB22840E951EA61EB71E86A2C7
:100FC00097A2A0A6B1A60BC0F101118281E090E02A
:100FD00008C086E090E005C085E090E002C080E0B7
:100FE00090E02496E2E19FC4ACE2B0E0E9EFF7E0E4
:100FF0008CC48C01AB0180917400909175000097B6
:1010000061F1CE010196F80193838283C801BE018C
:10101000635F7F4F87DB0097E1F48D858823B9F00C
:10102000888D84FF1DC049A15AA160E070E0BA011B
:10103000552744278FA198A5A0E0B0E0482B592B55
:101040006A2B7B2BF8014483558366837783C80121
:10105000F0D98330910521F005C086E090E002C010
:1010600084E090E0AC96E4E06CC4ACE2B0E0EAE38B
:10107000F8E047C47C016B01809174009091750089
:10108000009709F49CC0CE010196F70193838283F7
:101090006115710539F5C701CCD993C0F7012081DD
:1010A00031812F703070A5E0220F331FAA95E1F730
:1010B000CE010D9600E210E058D1009709F084C0EF
:1010C0008D85882309F483C0988D853E31F08E325A
:1010D00021F0892F8F7383FF1EC0C701B0DA0097FC
:1010E00019F00EC083E090E0F701448555856685D0
:1010F0007785411551056105710581F6009759F015
:10110000F70114861586168617868330910519F027
:10111000009709F056C09601275F3F4FF70184857D
:101120009585A685B7850097A105B105C9F1FE0192
:101130003D96D90198E09D018191803239F085304A
:1011400009F485EE8D939D019150A9F78D89803228
:10115000A1F08EE28D9380E090E09D01EDE0F0E063
:10116000EC0FFD1FE80FF91F4085403231F04D9321
:101170009D0101968330910581F7888DF601808766
:1011800089A59AA5ABA5BCA580839183A283B383CF
:101190008DA19EA1958384838BA19CA19783868337
:1011A000F9011082C7014BDA8330910551F4F70140
:1011B000148615861686178680E090E002C086E0C9
:1011C00090E0AC96E8E0B9C381E090E099CF83E08D
:1011D00090E096CFFF920F931F93CF93DF93C82F8A
:1011E000D42F152F062FF72E87FF08C087E740E082
:1011F00050E0BA01EFDF8230F8F4CF7746D747D717
:1012000042D745D78C2F57D78F2D55D7802F53D7FF
:10121000812F51D78D2F4FD7C03421F0C83421F002
:1012200081E003C085E901C087E845D7CAE02FD730
:1012300087FF02C0C150D9F7CDB7DEB7E5E080C364
:10124000A6E0B0E0E5E2F9E05DC318D70AE010E0FF
:101250001ED701501040E1F716D708E512E017D766
:1012600001501040E1F780E440E050E0BA01B2DF05
:10127000813009F059C088E44AEA51E060E070E04A
:10128000A9DF813089F57E010894E11CF11C8701FA
:1012900084E0D82EFCD6F80181938F01DA94D1F73F
:1012A0008B81813009F040C08C818A3A09F03CC0C2
:1012B00004C00150104019F437C008EA11E689EE65
:1012C00040E050E060E070E485DF882391F739C0AA
:1012D00004E0DDD6F70181937F010150D1F78981C8
:1012E00086FF20C09CE021C089EE40E050E0BA01BA
:1012F00071DF823018F492E029EE02C091E021E41F
:1013000008EA11E603C00150104071F0822F40E05E
:1013100050E0BA012D839E835DDF2D819E8188235D
:1013200091F718C094E001C090E09093CB019E83A8
:10133000ACD6ADD681E09E81911180E02696E7E0A3
:10134000FDC28AE740E050E0BA0144DF882309F497
:10135000BFCFEACF80E540E052E060E070E09E83DE
:1013600039DF9E81882301F7E0CFA0E0B0E0EAEB0F
:10137000F9E0C7C26C0179018091CB0183FD07C000
:1013800099E0440F551F661F771F9A95D1F781E5A5
:1013900021DF882389F4C0E3D5E779D68F3F19F49C
:1013A0002197D9F709C08E3F39F4C601B701A801CA
:1013B0008FD6C0E0D0E002C0C1E0D0E066D667D6EC
:1013C000CE01CDB7DEB7E8E0B8C271B614BE8EE08C
:1013D00081BD89E288BB8EE387BB789451E8252ED6
:1013E00050E0352E81EA91E0CBDA009709F01AC27D
:1013F000A8951092900085E690E0E2DB009739F422
:1014000080E990E061E070E04EE850E027DC8091F8
:101410009000870D81BF80E991E060E670E0E4DD37
:101420008C018430910559F480E991E064E670E024
:10143000DBDD8C0144E6442E40E0542EEFC130E663
:10144000432E30E0532EEAC180E991E060E070E085
:101450000CDE8C01D0E820E8822E24E8922E2EE1CA
:10146000A22EB12CD3C1A8950115110521F401C0FC
:10147000A895B099FDCF80E991E068E770E0F5DDCF
:101480008C01009709F0CAC180918100882309F47A
:10149000C5C180918000827109F0B8C181E890E0F7
:1014A0006CE670E05BD2009709F4B0C1A8958DB7E7
:1014B0009EB708970FB6F8949EBF0FBE8DBFEDB7CD
:1014C000FEB7319680E990E0ADB7BEB712969C9317
:1014D0008E931197AEE1B0E0B383A283558244822C
:1014E0003782268238D78DB79EB708960FB6F89404
:1014F0009EBF0FBE8DBF80E990E062DB8C0100973C
:1015000009F075C180E990E06CE070E04EE850E0D1
:10151000A5DB009709F0A2C180918E0090918F0009
:101520008C30910509F09AC18091980090919900B2
:10153000A0919A00B0919B00873521E4920726E59F
:10154000A20725E4B20709F089C1C0E0A89580E9A7
:1015500090E068E070E04EE850E080DB80918E0023
:1015600090918F008830910509F078C1C090940067
:10157000D0909500E0909600F090970080919000B8
:1015800090919100A0919200B09193008C3469E405
:10159000960763E5A60764E5B60709F4BCC08D3479
:1015A00029E4920723E5A20724E5B20790F48636E2
:1015B0006DE6960764E7A60760E2B607E9F08434B3
:1015C00029E4920723E5A20720E5B20709F046C106
:1015D000A2C0843661E6960764E7A60761E6B6070F
:1015E00009F467C0863621E6920723E6A20724E7BE
:1015F000B20709F033C18FC0C601817090700097A7
:1016000029F00894C11CD11CE11CF11CD701C601B2
:101610004097A109B10985359105A105B10508F0EB
:101620001DC180E990E0B6014EE850E017DB8091E3
:101630008E0090918F00A0E0B0E08C159D05AE0566
:10164000BF0509F00BC180919000813009F006C1FF
:10165000C09192008C2F8150823008F0FFC0C1BB36
:1016600080919E00883019F0803109F0F7C091B365
:10167000982B91BB84FDCC0F209194003091950064
:101680004091960050919700DA01C90180549F4122
:10169000A040B04081346CE9960760E0A60760E0A6
:1016A000B60708F0DBC0C501B401FFD0215029BD49
:1016B0004DCFCC2309F4D2C080E0C81684E0D80610
:1016C00080E0E80680E0F80608F4C8C08C2F90E0BF
:1016D0000197AC01662757FD6095762FDB01CA01A3
:1016E0008C219D21AE21BF210097A105B10509F0F4
:1016F000B5C08091B7019091B801A091B901B091A6
:10170000BA0184239523A623B7230097A105B10529
:1017100009F0A4C0A6C0C60181709070009729F09E
:101720000894C11CD11CE11CF11C8091B70190915F
:10173000B801A091B901B091BA018C0D9D1DAE1DEB
:10174000BF1DBC01CD0156DB01CF86E087BD80E621
:101750008CBD81E680BF82E08ABD83BF80E189BF06
:1017600081E090E01BD68091B7019091B801917013
:1017700060E072E0681B790B80E090E04EE850E09A
:101780006DDA80918E0090918F00A0E0B0E0C81AD1
:10179000D90AEA0AFB0AC1E0A89591E0C91694E0CB
:1017A000D90690E0E90690E0F90610F4B60102C00F
:1017B00060E074E080E090E04EE850E04FDA809125
:1017C0008E0090918F00A4E080309A0781F480E031
:1017D0009CEFAFEFBFEFC80ED91EEA1EFB1ECC0F69
:1017E000B099DACFCF5FC130B9F600E810E0809150
:1017F000A0018823E1F7DEBDDBBD0115110531F441
:1018000080E991E060E070E030DC8C0101151105A9
:1018100009F429CE0038110509F425CE011511056A
:1018200009F412CEA89513BE1ABC80B7882329F0FC
:1018300080E090E0B3D510BE1CBC8DE481BD85B7BF
:10184000877E806185BF85B7806285BF889585B7B3
:101850008F7D85BFA8958EE081BDC4CD0FEF10E0D0
:10186000D5CF1092A001109277001092760080B729
:10187000882309F078CF69CFFF27EE27BB27AA2757
:1018800060FF04C0A20FB31FE41FF51F220F331F18
:10189000441F551F969587957795679589F700970B
:1018A000760771F7CF01BD010895A1E21A2EAA1B98
:1018B000BB1BFD010DC0AA1FBB1FEE1FFF1FA21700
:1018C000B307E407F50720F0A21BB30BE40BF50BFD
:1018D000661F771F881F991F1A9469F76095709586
:1018E000809590959B01AC01BD01CF0108952F9289
:1018F0003F924F925F926F927F928F929F92AF92A0
:10190000BF92CF92DF92EF92FF920F931F93CF93EC
:10191000DF93CDB7DEB7CA1BDB0B0FB6F894DEBF83
:101920000FBECDBF09942A88398848885F846E84A9
:101930007D848C849B84AA84B984C884DF80EE80F3
:10194000FD800C811B81AA81B981CE0FD11D0FB6FC
:10195000F894DEBF0FBECDBFED010895FB0151919C
:101960005523A9F0BF01DC014D9145174111E1F765
:1019700059F4CD010190002049F04D9140154111DD
:10198000C9F3FB014111EFCF81E090E00197089589
:04199000F894FFCFF9
:1019940077617600006F736363616C002E57415664
:0219A400000041
:00000001FF
